:100000000C945D000C9485000C9485000C94850084
:100010000C9485000C9485000C9485000C9485004C
:100020000C9485000C9485000C9485000C9485003C
:100030000C9485000C9485000C9485000C9485002C
:100040000C94F0010C9485000C94BA040C94EC040C
:100050000C9485000C9485000C9485000C9485000C
:100060000C9485000C94850000000008000201003B
:100070000003040700000000000000000102040863
:100080001020408001020408102001020408102002
:10009000040404040404040402020202020203032E
:1000A0000303030300000000250028002B000000CC
:1000B0000000240027002A001C0511241FBECFEFDA
:1000C000D8E0DEBFCDBF11E0A0E0B1E0E4E7FDE0A5
:1000D00002C005900D92A635B107D9F722E0A6E53A
:1000E000B1E001C01D92AE30B207E1F710E0CAEBFB
:1000F000D0E004C02297FE010E94B406C83BD1079D
:10010000C9F70E9460050C94B8060C9400008EE0BC
:100110000E94C002909367018093660120915E0166
:1001200030915F01821B930B909363018093620176
:100130008FE00E94C002909365018093640120913A
:100140005C0130915D01821B930B90936101809360
:1001500060016BE071E081E791E00E94AD05609184
:100160006201709163014AE050E081E791E00E94F2
:10017000770661E371E081E791E00E94AD0560914F
:100180006001709161014AE050E081E791E00E94D6
:1001900077068091620190916301823E2FEF920772
:1001A00044F46EE071E081E791E00E94BA0561E0FD
:1001B00049C04F976CF064E171E081E791E00E94E3
:1001C000BA0560E0809108010E943F0361E03FC0F2
:1001D0008091600190916101823E2FEF920794F42B
:1001E00069E171E081E791E00E94BA0560E08091E9
:1001F00008010E943F0360E0809106010E943F03D6
:1002000061E02AC04F97BCF06EE171E081E791E0B8
:100210000E94BA0560E0809108010E943F0360E0FF
:10022000809106010E943F0360E0809104010E94DA
:100230003F0361E016C063E271E081E791E00E9454
:10024000BA0560E0809108010E943F0360E0809160
:1002500006010E943F0360E0809104010E943F0379
:1002600060E0809102010E943F0368EC70E080E052
:1002700090E00C945D02CF93DF93EC0110925B0150
:1002800010925A0110925701109256010E94C0021A
:10029000909359018093580190935B0180935A0188
:1002A000209156013091570124303105C4F58C2F2F
:1002B0000E94C00290935901809358014AE050E097
:1002C000BC0181E791E00E94770664E670E080E07F
:1002D00090E00E945D0220915601309157012F5FFE
:1002E0003F4F309357012093560140915801509150
:1002F000590120915A0130915B01CA01821B930B75
:100300009C012B5F3F4F2B30310550F2109257016B
:100310001092560150935B0140935A01C1CF4AE0BD
:1003200050E0BE0181E791E00E946F0668E271E053
:1003300081E791E00E94AD056091580170915901EB
:100340004AE050E081E791E00E9477061092570161
:10035000109256018091580190915901DF91CF91EF
:100360000895CF93DF9361E0809108010E94060316
:1003700061E0809106010E94060361E08091040122
:100380000E94060361E0809102010E940603C0E022
:10039000D1E061E088810E94060360E088810E94CC
:1003A0003F0326E040E855E260E070E081E791E03D
:1003B0000E9458048EE090E00E943B0190935F0100
:1003C00080935E018FE090E00E943B0190935D017D
:1003D00080935C0161E08881DF91CF910C943F03B1
:1003E0001F920F920FB60F9211242F933F938F936A
:1003F0009F93AF93BF938091690190916A01A091FF
:100400006B01B0916C013091680123E0230F2D370F
:1004100020F40196A11DB11D05C026E8230F029608
:10042000A11DB11D209368018093690190936A0119
:10043000A0936B01B0936C0180916D0190916E015E
:10044000A0916F01B09170010196A11DB11D809323
:100450006D0190936E01A0936F01B0937001BF91F5
:10046000AF919F918F913F912F910F900FBE0F9061
:100470001F9018953FB7F89480916D0190916E018F
:10048000A0916F01B091700126B5A89B05C02F3FC8
:1004900019F00196A11DB11D3FBF6627782F892F46
:1004A0009A2F620F711D811D911D42E0660F771F0B
:1004B000881F991F4A95D1F70895CF92DF92EF9246
:1004C000FF92CF93DF936B017C010E943A02EB0114
:1004D000C114D104E104F10489F00E948F060E9446
:1004E0003A026C1B7D0B683E734090F381E0C81AA2
:1004F000D108E108F108C851DC4FEACFDF91CF9174
:10050000FF90EF90DF90CF900895789484B582604B
:1005100084BD84B5816084BD85B5826085BD85B5A7
:10052000816085BDEEE6F0E0808181608083E1E856
:10053000F0E010828081826080838081816080838E
:10054000E0E8F0E0808181608083E1EBF0E0808191
:1005500084608083E0EBF0E0808181608083EAE763
:10056000F0E08081846080838081826080838081EC
:10057000816080838081806880831092C1000895AB
:100580008E3008F08E50877020910A0190E4299FE8
:1005900090011124822B80937C0080917A008064EA
:1005A00080937A0080917A0086FDFCCF809178005C
:1005B0002091790090E0922B0895833081F028F407
:1005C000813099F08230A1F008958730A9F0883009
:1005D000B9F08430D1F4809180008F7D03C0809188
:1005E00080008F7780938000089584B58F7702C054
:1005F00084B58F7D84BD08958091B0008F7703C04E
:100600008091B0008F7D8093B0000895CF93DF93E9
:1006100090E0FC01E458FF4F2491FC01E057FF4FAC
:100620008491882349F190E0880F991FFC01E255DD
:10063000FF4FA591B4918C559F4FFC01C591D4916A
:100640009FB7611108C0F8948C91209582238C93F8
:10065000888182230AC0623051F4F8948C91322F41
:10066000309583238C938881822B888304C0F894EF
:100670008C91822B8C939FBFDF91CF9108950F9324
:100680001F93CF93DF931F92CDB7DEB7282F30E0B3
:10069000F901E859FF4F8491F901E458FF4F149193
:1006A000F901E057FF4F04910023C9F0882321F09E
:1006B00069830E94DD026981E02FF0E0EE0FFF1FE9
:1006C000EC55FF4FA591B4919FB7F8948C916111AF
:1006D00003C01095812301C0812B8C939FBF0F9085
:1006E000DF91CF911F910F910895FC01818D228D93
:1006F00090E0805C9F4F821B91098F73992708952A
:10070000FC01918D828D981731F0828DE80FF11DDB
:10071000858D90E008958FEF9FEF0895FC01918DF6
:10072000828D981761F0828DDF01A80FB11D5D9653
:100730008C91928D9F5F9F73928F90E008958FEFC1
:100740009FEF089582E195E0892B49F080E090E0E9
:10075000892B29F00E94120581110C940000089544
:10076000FC01848DDF01A80FB11DA35ABF4F2C914E
:10077000848D90E001968F739927848FA689B7891D
:100780002C93A089B1898C9180648C93938D848DF6
:10079000981306C00288F389E02D80818F7D8083C5
:1007A0000895CF93DF93EC01888D8823C9F0EA89FF
:1007B000FB89808185FD05C0A889B9898C9186FD5A
:1007C0000FC00FB607FCF5CF808185FFF2CFA88957
:1007D000B9898C9185FFEDCFCE010E94B003E7CFA0
:1007E000DF91CF910895CF92DF92FF920F931F93E5
:1007F000CF93DF931F92CDB7DEB76C0181E0D601B6
:1008000058968C9358975B969C915B975C968C91CD
:100810005C97981307C05096ED91FC915197808199
:1008200085FD2EC0F601038D10E00F5F1F4F0F7383
:100830001127F02EF601848DF81211C00FB607FCB7
:10084000F9CFD6015096ED91FC915197808185FFAB
:10085000F1CFC60169830E94B0036981EBCF838D1C
:10086000E80FF11DE35AFF4F6083D6015B960C93AE
:100870005B975296ED91FC915397808180620CC0FA
:10088000D6015696ED91FC91579760835096ED9165
:10089000FC91519780818064808381E090E00F908B
:1008A000DF91CF911F910F91FF90DF90CF9008952E
:1008B000BF92CF92DF92EF92FF92CF93DF93EC0142
:1008C0006A017B01B22EE889F98982E080834115B3
:1008D00081EE580761057105A1F060E079E08DE3D4
:1008E00090E0A70196010E9490062150310941092C
:1008F00051095695479537952795211580E1380779
:1009000098F0E889F989108260E874E88EE190E057
:10091000A70196010E949006215031094109510911
:100920005695479537952795EC85FD853083EE855F
:10093000FF852083188EEC89FD89B082EA89FB89C6
:10094000808180618083EA89FB89808188608083DF
:10095000EA89FB89808180688083EA89FB898081BC
:100960008F7D8083DF91CF91FF90EF90DF90CF90CC
:10097000BF9008951F920F920FB60F9211242F93DC
:100980008F939F93EF93FF93E0918101F091820108
:100990008081E0918701F091880182FD12C09081F1
:1009A00080918A018F5F8F7320918B01821751F0A4
:1009B000E0918A01F0E0EF58FE4F958F80938A0115
:1009C00001C08081FF91EF919F918F912F910F90A6
:1009D0000FBE0F901F9018951F920F920FB60F9297
:1009E00011242F933F934F935F936F937F938F9334
:1009F0009F93AF93BF93EF93FF9381E791E00E94A2
:100A0000B003FF91EF91BF91AF919F918F917F9133
:100A10006F915F914F913F912F910F900FBE0F906B
:100A20001F90189581E791E00E94750321E0892BC2
:100A300009F420E0822F089510927401109273013E
:100A400088EE93E0A0E0B0E080937501909376018A
:100A5000A0937701B093780188E391E090937201BD
:100A60008093710185EC90E090937E0180937D01ED
:100A700084EC90E09093800180937F0180EC90E083
:100A8000909382018093810181EC90E090938401A6
:100A90008093830182EC90E090938601809385019E
:100AA00086EC90E0909388018093870110928A01F0
:100AB00010928B0110928C0110928D01089508956F
:100AC0000E9485020E945F050E94B101C2EAD3E044
:100AD0000E9487002097E1F30E94A203F9CFCF92F2
:100AE000DF92EF92FF920F931F93CF93DF936C01EE
:100AF0007A01EB01E60EF71E00E010E0CE15DF05EF
:100B000061F06991D601ED91FC910190F081E02DA9
:100B1000C6010995080F191FF1CFC801DF91CF91C8
:100B20001F910F91FF90EF90DF90CF900895611586
:100B3000710581F0DB010D900020E9F7AD01415016
:100B40005109461B570BDC01ED91FC910280F381AA
:100B5000E02D099480E090E008950C949705DC0165
:100B6000ED91FC910190F081E02D099464E471E035
:100B70000C9497050F931F93CF93DF93EC010E9482
:100B800097058C01CE010E94B605800F911FDF9161
:100B9000CF911F910F9108958F929F92AF92BF9224
:100BA000CF92DF92EF92FF920F931F93CF93DF9339
:100BB000CDB7DEB7A1970FB6F894DEBF0FBECDBF9D
:100BC0007C01C42EE52FCB01D22E19A221E02D15D8
:100BD00010F02AE0D22E8E010F5D1F4F8D2C912C2C
:100BE000A12CB12C6C2D7E2FA50194010E949006A2
:100BF0008C2DD29E80191124015011098A3014F4D1
:100C0000805D01C0895CF8018083211531054105B3
:100C1000510521F0C22EE32FCA01E4CFB801C7016C
:100C20000E949705A1960FB6F894DEBF0FBECDBF08
:100C3000DF91CF911F910F91FF90EF90DF90CF90B8
:100C4000BF90AF909F908F900895CF92DF92EF92D8
:100C5000FF920F931F93CF93DF93EC016A017B0107
:100C60002115310579F4E881F9810190F081E02DB9
:100C7000642FDF91CF911F910F91FF90EF90DF9044
:100C8000CF9009942A303105E9F477FF1AC06DE25C
:100C90000E94AF058C0144275527BA014C195D0904
:100CA0006E097F092AE0CE010E94CC05800F911FBA
:100CB000DF91CF911F910F91FF90EF90DF90CF9038
:100CC00008952AE0B701A601CE01DF91CF911F91CF
:100CD0000F91FF90EF90DF90CF900C94CC059A018C
:100CE000AB01662757FD6095762F0C9425060F9370
:100CF0001F93CF93DF93EC019A01AB01662757FD59
:100D00006095762F0E9425068C01CE010E94B605C3
:100D1000800F911FDF91CF911F910F91089508953A
:100D2000A1E21A2EAA1BBB1BFD010DC0AA1FBB1FEF
:100D3000EE1FFF1FA217B307E407F50720F0A21B61
:100D4000B30BE40BF50B661F771F881F991F1A94CE
:100D500069F760957095809590959B01AC01BD01F8
:100D6000CF010895EE0FFF1F0590F491E02D099437
:040D7000F894FFCF25
:100D740005000D000C000B00090001783D007269AC
:100D8400676874006C6566740066727764006261FB
:100D9400636B0073746F70002073746162696C69B3
:100DA40074793D0000000000F3036F0575038E03A2
:100DB4008003D1030D0A006E616E00696E66006FD8
:060DC4007666002E00001F
:00000001FF
